{
  "_format": "hh-sol-artifact-1",
  "contractName": "Web3RSVP",
  "sourceName": "contracts/Web3RSVP.sol",
  "abi": [
    {
      "anonymous": false,
      "inputs": [
        {
          "indexed": false,
          "internalType": "bytes32",
          "name": "eventID",
          "type": "bytes32"
        },
        {
          "indexed": false,
          "internalType": "address",
          "name": "attendeeAddress",
          "type": "address"
        }
      ],
      "name": "ConfirmedAttendee",
      "type": "event"
    },
    {
      "anonymous": false,
      "inputs": [
        {
          "indexed": false,
          "internalType": "bytes32",
          "name": "eventID",
          "type": "bytes32"
        }
      ],
      "name": "DepositsPaidOut",
      "type": "event"
    },
    {
      "anonymous": false,
      "inputs": [
        {
          "indexed": false,
          "internalType": "bytes32",
          "name": "eventID",
          "type": "bytes32"
        },
        {
          "indexed": false,
          "internalType": "address",
          "name": "creatorAddress",
          "type": "address"
        },
        {
          "indexed": false,
          "internalType": "uint256",
          "name": "eventTimestamp",
          "type": "uint256"
        },
        {
          "indexed": false,
          "internalType": "uint256",
          "name": "maxCapacity",
          "type": "uint256"
        },
        {
          "indexed": false,
          "internalType": "uint256",
          "name": "deposit",
          "type": "uint256"
        },
        {
          "indexed": false,
          "internalType": "string",
          "name": "eventDataCID",
          "type": "string"
        }
      ],
      "name": "NewEventCreated",
      "type": "event"
    },
    {
      "anonymous": false,
      "inputs": [
        {
          "indexed": false,
          "internalType": "bytes32",
          "name": "eventID",
          "type": "bytes32"
        },
        {
          "indexed": false,
          "internalType": "address",
          "name": "attendeeAddress",
          "type": "address"
        }
      ],
      "name": "NewRSVP",
      "type": "event"
    },
    {
      "inputs": [
        {
          "internalType": "bytes32",
          "name": "eventId",
          "type": "bytes32"
        }
      ],
      "name": "confirmAllAttendees",
      "outputs": [],
      "stateMutability": "nonpayable",
      "type": "function"
    },
    {
      "inputs": [
        {
          "internalType": "bytes32",
          "name": "eventId",
          "type": "bytes32"
        },
        {
          "internalType": "address",
          "name": "attendee",
          "type": "address"
        }
      ],
      "name": "confirmAttendee",
      "outputs": [],
      "stateMutability": "nonpayable",
      "type": "function"
    },
    {
      "inputs": [
        {
          "internalType": "uint256",
          "name": "eventTimestamp",
          "type": "uint256"
        },
        {
          "internalType": "uint256",
          "name": "deposit",
          "type": "uint256"
        },
        {
          "internalType": "uint256",
          "name": "maxCapacity",
          "type": "uint256"
        },
        {
          "internalType": "string",
          "name": "eventDataCID",
          "type": "string"
        }
      ],
      "name": "createNewEvent",
      "outputs": [],
      "stateMutability": "nonpayable",
      "type": "function"
    },
    {
      "inputs": [
        {
          "internalType": "bytes32",
          "name": "eventId",
          "type": "bytes32"
        }
      ],
      "name": "createNewRSVP",
      "outputs": [],
      "stateMutability": "payable",
      "type": "function"
    },
    {
      "inputs": [
        {
          "internalType": "bytes32",
          "name": "",
          "type": "bytes32"
        }
      ],
      "name": "idToEvent",
      "outputs": [
        {
          "internalType": "bytes32",
          "name": "eventId",
          "type": "bytes32"
        },
        {
          "internalType": "string",
          "name": "eventDataCID",
          "type": "string"
        },
        {
          "internalType": "address",
          "name": "eventOwner",
          "type": "address"
        },
        {
          "internalType": "uint256",
          "name": "eventTimestamp",
          "type": "uint256"
        },
        {
          "internalType": "uint256",
          "name": "deposit",
          "type": "uint256"
        },
        {
          "internalType": "uint256",
          "name": "maxCapacity",
          "type": "uint256"
        },
        {
          "internalType": "bool",
          "name": "paidOut",
          "type": "bool"
        }
      ],
      "stateMutability": "view",
      "type": "function"
    },
    {
      "inputs": [
        {
          "internalType": "bytes32",
          "name": "eventId",
          "type": "bytes32"
        }
      ],
      "name": "withdrawUnclaimedDeposits",
      "outputs": [],
      "stateMutability": "nonpayable",
      "type": "function"
    }
  ],
  "bytecode": "0x608060405234801561001057600080fd5b5061235b806100206000396000f3fe6080604052600436106100545760003560e01c806292098c1461005957806317f0165a146100825780636dcdf2cd1461009e57806379747571146100c7578063909ef021146100f0578063acdbe01214610133575b600080fd5b34801561006557600080fd5b50610080600480360381019061007b91906116ef565b61015c565b005b61009c6004803603810190610097919061168a565b6103d0565b005b3480156100aa57600080fd5b506100c560048036038101906100c091906116b3565b61065d565b005b3480156100d357600080fd5b506100ee60048036038101906100e9919061168a565b610bce565b005b3480156100fc57600080fd5b506101176004803603810190610112919061168a565b611086565b60405161012a9796959493929190611b6e565b60405180910390f35b34801561013f57600080fd5b5061015a6004803603810190610155919061168a565b61117d565b005b60003330878787604051602001610177959493929190611a4c565b604051602081830303815290604052805190602001209050606080600080600085815260200190815260200160002060030154146101ea576040517f08c379a00000000000000000000000000000000000000000000000000000000081526004016101e190611c24565b60405180910390fd5b60405180610120016040528084815260200186868080601f016020809104026020016040519081016040528093929190818152602001838380828437600081840152601f19601f8201169050808301925050505050505081526020013373ffffffffffffffffffffffffffffffffffffffff168152602001898152602001888152602001878152602001838152602001828152602001600015158152506000808581526020019081526020016000206000820151816000015560208201518160010190805190602001906102bf9291906114d4565b5060408201518160020160006101000a81548173ffffffffffffffffffffffffffffffffffffffff021916908373ffffffffffffffffffffffffffffffffffffffff160217905550606082015181600301556080820151816004015560a0820151816005015560c082015181600601908051906020019061034192919061155a565b5060e082015181600701908051906020019061035e92919061155a565b506101008201518160080160006101000a81548160ff0219169083151502179055509050507f2553138c3f9c9008f266dbdbe9fc64f5b71e098d06ef714a190a65a8b9fc6bf383338a898b8a8a6040516103be9796959493929190611b04565b60405180910390a15050505050505050565b600080600083815260200190815260200160002090503481600401541461042c576040517f08c379a000000000000000000000000000000000000000000000000000000000815260040161042390611cc4565b60405180910390fd5b4281600301541015610473576040517f08c379a000000000000000000000000000000000000000000000000000000000815260040161046a90611c84565b60405180910390fd5b80600501548160060180549050106104c0576040517f08c379a00000000000000000000000000000000000000000000000000000000081526004016104b790611be4565b60405180910390fd5b60005b81600601805490508110156105ba573373ffffffffffffffffffffffffffffffffffffffff16826006018281548110610525577f4e487b7100000000000000000000000000000000000000000000000000000000600052603260045260246000fd5b9060005260206000200160009054906101000a900473ffffffffffffffffffffffffffffffffffffffff1673ffffffffffffffffffffffffffffffffffffffff1614156105a7576040517f08c379a000000000000000000000000000000000000000000000000000000000815260040161059e90611c64565b60405180910390fd5b80806105b290611f82565b9150506104c3565b5080600601339080600181540180825580915050600190039060005260206000200160009091909190916101000a81548173ffffffffffffffffffffffffffffffffffffffff021916908373ffffffffffffffffffffffffffffffffffffffff1602179055507fb79f4240bbdd272d98e02a5db7f0cf156e5fc000961c517670a26eeeec63ed908233604051610651929190611adb565b60405180910390a15050565b600080600084815260200190815260200160002090508060020160009054906101000a900473ffffffffffffffffffffffffffffffffffffffff1673ffffffffffffffffffffffffffffffffffffffff163373ffffffffffffffffffffffffffffffffffffffff1614610705576040517f08c379a00000000000000000000000000000000000000000000000000000000081526004016106fc90611d44565b60405180910390fd5b600080600090505b82600601805490508160ff16101561083c578373ffffffffffffffffffffffffffffffffffffffff16836006018260ff1681548110610775577f4e487b7100000000000000000000000000000000000000000000000000000000600052603260045260246000fd5b9060005260206000200160009054906101000a900473ffffffffffffffffffffffffffffffffffffffff1673ffffffffffffffffffffffffffffffffffffffff16141561082957826006018160ff16815481106107fb577f4e487b7100000000000000000000000000000000000000000000000000000000600052603260045260246000fd5b9060005260206000200160009054906101000a900473ffffffffffffffffffffffffffffffffffffffff1691505b808061083490611fcb565b91505061070d565b508273ffffffffffffffffffffffffffffffffffffffff168173ffffffffffffffffffffffffffffffffffffffff16146108ab576040517f08c379a00000000000000000000000000000000000000000000000000000000081526004016108a290611d04565b60405180910390fd5b60005b82600701805490508160ff1610156109ab578373ffffffffffffffffffffffffffffffffffffffff16836007018260ff1681548110610916577f4e487b7100000000000000000000000000000000000000000000000000000000600052603260045260246000fd5b9060005260206000200160009054906101000a900473ffffffffffffffffffffffffffffffffffffffff1673ffffffffffffffffffffffffffffffffffffffff161415610998576040517f08c379a000000000000000000000000000000000000000000000000000000000815260040161098f90611c04565b60405180910390fd5b80806109a390611fcb565b9150506108ae565b50600015158260080160009054906101000a900460ff16151514610a04576040517f08c379a00000000000000000000000000000000000000000000000000000000081526004016109fb90611d64565b60405180910390fd5b81600701839080600181540180825580915050600190039060005260206000200160009091909190916101000a81548173ffffffffffffffffffffffffffffffffffffffff021916908373ffffffffffffffffffffffffffffffffffffffff16021790555060008373ffffffffffffffffffffffffffffffffffffffff168360040154604051610a9390611aab565b60006040518083038185875af1925050503d8060008114610ad0576040519150601f19603f3d011682016040523d82523d6000602084013e610ad5565b606091505b5050905080610b4e5782600701805480610b18577f4e487b7100000000000000000000000000000000000000000000000000000000600052603160045260246000fd5b6001900381819060005260206000200160006101000a81549073ffffffffffffffffffffffffffffffffffffffff021916905590555b80610b8e576040517f08c379a0000000000000000000000000000000000000000000000000000000008152600401610b8590611ca4565b60405180910390fd5b7ff8d1583a733d83bdd3ef5464129d0a95a36d62b382d31c6d0467a61f4264381b8585604051610bbf929190611adb565b60405180910390a15050505050565b60008060008381526020019081526020016000206040518061012001604052908160008201548152602001600182018054610c0890611f50565b80601f0160208091040260200160405190810160405280929190818152602001828054610c3490611f50565b8015610c815780601f10610c5657610100808354040283529160200191610c81565b820191906000526020600020905b815481529060010190602001808311610c6457829003601f168201915b505050505081526020016002820160009054906101000a900473ffffffffffffffffffffffffffffffffffffffff1673ffffffffffffffffffffffffffffffffffffffff1673ffffffffffffffffffffffffffffffffffffffff16815260200160038201548152602001600482015481526020016005820154815260200160068201805480602002602001604051908101604052809291908181526020018280548015610d8357602002820191906000526020600020905b8160009054906101000a900473ffffffffffffffffffffffffffffffffffffffff1673ffffffffffffffffffffffffffffffffffffffff1681526020019060010190808311610d39575b5050505050815260200160078201805480602002602001604051908101604052809291908181526020018280548015610e1157602002820191906000526020600020905b8160009054906101000a900473ffffffffffffffffffffffffffffffffffffffff1673ffffffffffffffffffffffffffffffffffffffff1681526020019060010190808311610dc7575b505050505081526020016008820160009054906101000a900460ff161515151581525050905080610100015115610e7d576040517f08c379a0000000000000000000000000000000000000000000000000000000008152600401610e7490611ce4565b60405180910390fd5b62093a808160600151610e909190611dcb565b421015610ed2576040517f08c379a0000000000000000000000000000000000000000000000000000000008152600401610ec990611d84565b60405180910390fd5b806040015173ffffffffffffffffffffffffffffffffffffffff163373ffffffffffffffffffffffffffffffffffffffff1614610f44576040517f08c379a0000000000000000000000000000000000000000000000000000000008152600401610f3b90611d24565b60405180910390fd5b60008160e00151518260c0015151610f5c9190611e7b565b90506000826080015182610f709190611e21565b905060018361010001901515908115158152505060003373ffffffffffffffffffffffffffffffffffffffff1682604051610faa90611aab565b60006040518083038185875af1925050503d8060008114610fe7576040519150601f19603f3d011682016040523d82523d6000602084013e610fec565b606091505b5050905080611008576000846101000190151590811515815250505b80611048576040517f08c379a000000000000000000000000000000000000000000000000000000000815260040161103f90611c44565b60405180910390fd5b7f393073ea1365f611c3d2f240c992960d2b99dc81715555d3fc40fc55ba80af9c856040516110779190611ac0565b60405180910390a15050505050565b60006020528060005260406000206000915090508060000154908060010180546110af90611f50565b80601f01602080910402602001604051908101604052809291908181526020018280546110db90611f50565b80156111285780601f106110fd57610100808354040283529160200191611128565b820191906000526020600020905b81548152906001019060200180831161110b57829003601f168201915b5050505050908060020160009054906101000a900473ffffffffffffffffffffffffffffffffffffffff16908060030154908060040154908060050154908060080160009054906101000a900460ff16905087565b600080600083815260200190815260200160002060405180610120016040529081600082015481526020016001820180546111b790611f50565b80601f01602080910402602001604051908101604052809291908181526020018280546111e390611f50565b80156112305780601f1061120557610100808354040283529160200191611230565b820191906000526020600020905b81548152906001019060200180831161121357829003601f168201915b505050505081526020016002820160009054906101000a900473ffffffffffffffffffffffffffffffffffffffff1673ffffffffffffffffffffffffffffffffffffffff1673ffffffffffffffffffffffffffffffffffffffff1681526020016003820154815260200160048201548152602001600582015481526020016006820180548060200260200160405190810160405280929190818152602001828054801561133257602002820191906000526020600020905b8160009054906101000a900473ffffffffffffffffffffffffffffffffffffffff1673ffffffffffffffffffffffffffffffffffffffff16815260200190600101908083116112e8575b50505050508152602001600782018054806020026020016040519081016040528092919081815260200182805480156113c057602002820191906000526020600020905b8160009054906101000a900473ffffffffffffffffffffffffffffffffffffffff1673ffffffffffffffffffffffffffffffffffffffff1681526020019060010190808311611376575b505050505081526020016008820160009054906101000a900460ff1615151515815250509050806040015173ffffffffffffffffffffffffffffffffffffffff163373ffffffffffffffffffffffffffffffffffffffff1614611458576040517f08c379a000000000000000000000000000000000000000000000000000000000815260040161144f90611d44565b60405180910390fd5b60005b8160c00151518160ff1610156114cf576114bc838360c001518360ff16815181106114af577f4e487b7100000000000000000000000000000000000000000000000000000000600052603260045260246000fd5b602002602001015161065d565b80806114c790611fcb565b91505061145b565b505050565b8280546114e090611f50565b90600052602060002090601f0160209004810192826115025760008555611549565b82601f1061151b57805160ff1916838001178555611549565b82800160010185558215611549579182015b8281111561154857825182559160200191906001019061152d565b5b50905061155691906115e4565b5090565b8280548282559060005260206000209081019282156115d3579160200282015b828111156115d25782518260006101000a81548173ffffffffffffffffffffffffffffffffffffffff021916908373ffffffffffffffffffffffffffffffffffffffff1602179055509160200191906001019061157a565b5b5090506115e091906115e4565b5090565b5b808211156115fd5760008160009055506001016115e5565b5090565b600081359050611610816122e0565b92915050565b600081359050611625816122f7565b92915050565b60008083601f84011261163d57600080fd5b8235905067ffffffffffffffff81111561165657600080fd5b60208301915083600182028301111561166e57600080fd5b9250929050565b6000813590506116848161230e565b92915050565b60006020828403121561169c57600080fd5b60006116aa84828501611616565b91505092915050565b600080604083850312156116c657600080fd5b60006116d485828601611616565b92505060206116e585828601611601565b9150509250929050565b60008060008060006080868803121561170757600080fd5b600061171588828901611675565b955050602061172688828901611675565b945050604061173788828901611675565b935050606086013567ffffffffffffffff81111561175457600080fd5b6117608882890161162b565b92509250509295509295909350565b61177881611eaf565b82525050565b61178f61178a82611eaf565b611ff5565b82525050565b61179e81611ec1565b82525050565b6117ad81611ecd565b82525050565b60006117bf8385611dba565b93506117cc838584611f0e565b6117d583612081565b840190509392505050565b60006117eb82611da4565b6117f58185611dba565b9350611805818560208601611f1d565b61180e81612081565b840191505092915050565b6000611826601a83611dba565b91506118318261209f565b602082019050919050565b6000611849600f83611dba565b9150611854826120c8565b602082019050919050565b600061186c601283611dba565b9150611877826120f1565b602082019050919050565b600061188f601483611dba565b915061189a8261211a565b602082019050919050565b60006118b2601183611dba565b91506118bd82612143565b602082019050919050565b60006118d5601083611dba565b91506118e08261216c565b602082019050919050565b60006118f8601483611dba565b915061190382612195565b602082019050919050565b600061191b600a83611dba565b9150611926826121be565b602082019050919050565b600061193e600c83611dba565b9150611949826121e7565b602082019050919050565b6000611961601283611dba565b915061196c82612210565b602082019050919050565b6000611984600083611daf565b915061198f82612239565b600082019050919050565b60006119a7601383611dba565b91506119b28261223c565b602082019050919050565b60006119ca600e83611dba565b91506119d582612265565b602082019050919050565b60006119ed600f83611dba565b91506119f88261228e565b602082019050919050565b6000611a10600983611dba565b9150611a1b826122b7565b602082019050919050565b611a2f81611ef7565b82525050565b611a46611a4182611ef7565b612019565b82525050565b6000611a58828861177e565b601482019150611a68828761177e565b601482019150611a788286611a35565b602082019150611a888285611a35565b602082019150611a988284611a35565b6020820191508190509695505050505050565b6000611ab682611977565b9150819050919050565b6000602082019050611ad560008301846117a4565b92915050565b6000604082019050611af060008301856117a4565b611afd602083018461176f565b9392505050565b600060c082019050611b19600083018a6117a4565b611b26602083018961176f565b611b336040830188611a26565b611b406060830187611a26565b611b4d6080830186611a26565b81810360a0830152611b608184866117b3565b905098975050505050505050565b600060e082019050611b83600083018a6117a4565b8181036020830152611b9581896117e0565b9050611ba4604083018861176f565b611bb16060830187611a26565b611bbe6080830186611a26565b611bcb60a0830185611a26565b611bd860c0830184611795565b98975050505050505050565b60006020820190508181036000830152611bfd81611819565b9050919050565b60006020820190508181036000830152611c1d8161183c565b9050919050565b60006020820190508181036000830152611c3d8161185f565b9050919050565b60006020820190508181036000830152611c5d81611882565b9050919050565b60006020820190508181036000830152611c7d816118a5565b9050919050565b60006020820190508181036000830152611c9d816118c8565b9050919050565b60006020820190508181036000830152611cbd816118eb565b9050919050565b60006020820190508181036000830152611cdd8161190e565b9050919050565b60006020820190508181036000830152611cfd81611931565b9050919050565b60006020820190508181036000830152611d1d81611954565b9050919050565b60006020820190508181036000830152611d3d8161199a565b9050919050565b60006020820190508181036000830152611d5d816119bd565b9050919050565b60006020820190508181036000830152611d7d816119e0565b9050919050565b60006020820190508181036000830152611d9d81611a03565b9050919050565b600081519050919050565b600081905092915050565b600082825260208201905092915050565b6000611dd682611ef7565b9150611de183611ef7565b9250827fffffffffffffffffffffffffffffffffffffffffffffffffffffffffffffffff03821115611e1657611e15612023565b5b828201905092915050565b6000611e2c82611ef7565b9150611e3783611ef7565b9250817fffffffffffffffffffffffffffffffffffffffffffffffffffffffffffffffff0483118215151615611e7057611e6f612023565b5b828202905092915050565b6000611e8682611ef7565b9150611e9183611ef7565b925082821015611ea457611ea3612023565b5b828203905092915050565b6000611eba82611ed7565b9050919050565b60008115159050919050565b6000819050919050565b600073ffffffffffffffffffffffffffffffffffffffff82169050919050565b6000819050919050565b600060ff82169050919050565b82818337600083830152505050565b60005b83811015611f3b578082015181840152602081019050611f20565b83811115611f4a576000848401525b50505050565b60006002820490506001821680611f6857607f821691505b60208210811415611f7c57611f7b612052565b5b50919050565b6000611f8d82611ef7565b91507fffffffffffffffffffffffffffffffffffffffffffffffffffffffffffffffff821415611fc057611fbf612023565b5b600182019050919050565b6000611fd682611f01565b915060ff821415611fea57611fe9612023565b5b600182019050919050565b600061200082612007565b9050919050565b600061201282612092565b9050919050565b6000819050919050565b7f4e487b7100000000000000000000000000000000000000000000000000000000600052601160045260246000fd5b7f4e487b7100000000000000000000000000000000000000000000000000000000600052602260045260246000fd5b6000601f19601f8301169050919050565b60008160601b9050919050565b7f54686973206576656e7420697320616c72656164792066756c6c000000000000600082015250565b7f414c524541445920434c41494d45440000000000000000000000000000000000600082015250565b7f414c524541445920524547495354455245440000000000000000000000000000600082015250565b7f4661696c656420746f2073656e64204574686572000000000000000000000000600082015250565b7f414c524541445920434f4e4649524d4544000000000000000000000000000000600082015250565b7f414c52454144592041485050454e454400000000000000000000000000000000600082015250565b7f4661696c656420746f2073656e64206574686572000000000000000000000000600082015250565b7f4e4f5420454e4f55474800000000000000000000000000000000000000000000600082015250565b7f414c524541445920504149440000000000000000000000000000000000000000600082015250565b7f4e4f205253565020544f20434f4e4649524d0000000000000000000000000000600082015250565b50565b7f4d555354204245204556454e54204f574e455200000000000000000000000000600082015250565b7f4e4f5420415554484f52495a4544000000000000000000000000000000000000600082015250565b7f414c524541445920504149444f55540000000000000000000000000000000000600082015250565b7f544f4f204541524c590000000000000000000000000000000000000000000000600082015250565b6122e981611eaf565b81146122f457600080fd5b50565b61230081611ecd565b811461230b57600080fd5b50565b61231781611ef7565b811461232257600080fd5b5056fea264697066735822122015187f95742ff6a185796390aaadf031dc40d74d39e094e45c1c295541b011ab64736f6c63430008040033",
  "linkReferences": {},
  "deployedLinkReferences": {}
}